{
  "contractName": "IntExtended",
  "abi": [
    {
      "constant": true,
      "inputs": [
        {
          "name": "_self",
          "type": "uint256"
        }
      ],
      "name": "increment",
      "outputs": [
        {
          "name": "",
          "type": "uint256"
        }
      ],
      "payable": false,
      "stateMutability": "pure",
      "type": "function"
    },
    {
      "constant": true,
      "inputs": [
        {
          "name": "_self",
          "type": "uint256"
        }
      ],
      "name": "decrement",
      "outputs": [
        {
          "name": "",
          "type": "uint256"
        }
      ],
      "payable": false,
      "stateMutability": "pure",
      "type": "function"
    },
    {
      "constant": true,
      "inputs": [
        {
          "name": "_self",
          "type": "uint256"
        },
        {
          "name": "_value",
          "type": "uint256"
        }
      ],
      "name": "incrementByValue",
      "outputs": [
        {
          "name": "",
          "type": "uint256"
        }
      ],
      "payable": false,
      "stateMutability": "pure",
      "type": "function"
    },
    {
      "constant": true,
      "inputs": [
        {
          "name": "_self",
          "type": "uint256"
        },
        {
          "name": "_value",
          "type": "uint256"
        }
      ],
      "name": "decrementByValue",
      "outputs": [
        {
          "name": "",
          "type": "uint256"
        }
      ],
      "payable": false,
      "stateMutability": "pure",
      "type": "function"
    }
  ],
  "bytecode": "0x6101c2610030600b82828239805160001a6073146000811461002057610022565bfe5b5030600052607381538281f3007300000000000000000000000000000000000000003014608060405260043610610079576000357c0100000000000000000000000000000000000000000000000000000000900463ffffffff1680633a9ebefd1461007e5780637669a640146100b25780637cf5dab0146100f0578063dccce74d14610124575b600080fd5b61009c60048036038101908080359060200190929190505050610162565b6040518082815260200191505060405180910390f35b6100da600480360381019080803590602001909291908035906020019092919050505061016f565b6040518082815260200191505060405180910390f35b61010e6004803603810190808035906020019092919050505061017c565b6040518082815260200191505060405180910390f35b61014c6004803603810190808035906020019092919080359060200190929190505050610189565b6040518082815260200191505060405180910390f35b6000600182039050919050565b6000818301905092915050565b6000600182019050919050565b60008183039050929150505600a165627a7a723058205b894196ad067ee84fca46fb9db00ad923c9f918a814c92cc05e3f2731ae3faf0029",
  "source": "pragma solidity ^0.4.0;\n\nlibrary IntExtended {\n    \n    function increment(uint _self) public pure returns (uint) {\n        return _self+1;\n    }\n    \n    function decrement(uint _self) public pure returns (uint) {\n        return _self-1;\n    }\n    \n    function incrementByValue(uint _self, uint _value) public pure returns (uint) {\n        return _self + _value;\n    }\n    \n    function decrementByValue(uint _self, uint _value) public pure returns (uint) {\n        return _self - _value;\n    }\n}",
  "sourcePath": "/home/reginaldanthony/accion/Accion/ContractsBySrini/Increment_Library/contracts/IntExtended.sol",
  "compiler": {
    "name": "solc",
    "version": "0.4.24+commit.e67f0147.Emscripten.clang"
  },
  "schemaVersion": "2.0.1",
  "updatedAt": "2018-11-29T10:04:50.898Z"
}