{
  "contractName": "TestLibrary",
  "abi": [
    {
      "constant": true,
      "inputs": [
        {
          "name": "_base",
          "type": "uint256"
        }
      ],
      "name": "testIncrement",
      "outputs": [
        {
          "name": "",
          "type": "uint256"
        }
      ],
      "payable": false,
      "stateMutability": "pure",
      "type": "function"
    },
    {
      "constant": true,
      "inputs": [
        {
          "name": "_base",
          "type": "uint256"
        }
      ],
      "name": "testDecrement",
      "outputs": [
        {
          "name": "",
          "type": "uint256"
        }
      ],
      "payable": false,
      "stateMutability": "pure",
      "type": "function"
    },
    {
      "constant": true,
      "inputs": [
        {
          "name": "_base",
          "type": "uint256"
        },
        {
          "name": "_value",
          "type": "uint256"
        }
      ],
      "name": "testIncrementByValue",
      "outputs": [
        {
          "name": "",
          "type": "uint256"
        }
      ],
      "payable": false,
      "stateMutability": "pure",
      "type": "function"
    },
    {
      "constant": true,
      "inputs": [
        {
          "name": "_base",
          "type": "uint256"
        },
        {
          "name": "_value",
          "type": "uint256"
        }
      ],
      "name": "testDecrementByValue",
      "outputs": [
        {
          "name": "",
          "type": "uint256"
        }
      ],
      "payable": false,
      "stateMutability": "pure",
      "type": "function"
    }
  ],
  "bytecode": "0x608060405234801561001057600080fd5b5061047d806100206000396000f300608060405260043610610062576000357c0100000000000000000000000000000000000000000000000000000000900463ffffffff168063169524d3146100675780636d87ae2b146100b2578063acec036b146100f3578063e225a04314610134575b600080fd5b34801561007357600080fd5b5061009c600480360381019080803590602001909291908035906020019092919050505061017f565b6040518082815260200191505060405180910390f35b3480156100be57600080fd5b506100dd60048036038101908080359060200190929190505050610239565b6040518082815260200191505060405180910390f35b3480156100ff57600080fd5b5061011e600480360381019080803590602001909291905050506102e8565b6040518082815260200191505060405180910390f35b34801561014057600080fd5b506101696004803603810190808035906020019092919080359060200190929190505050610397565b6040518082815260200191505060405180910390f35b60008273__IntExtended___________________________63dccce74d9091846040518363ffffffff167c0100000000000000000000000000000000000000000000000000000000028152600401808381526020018281526020019250505060206040518083038186803b1580156101f657600080fd5b505af415801561020a573d6000803e3d6000fd5b505050506040513d602081101561022057600080fd5b8101908080519060200190929190505050905092915050565b600073__IntExtended___________________________637cf5dab0836040518263ffffffff167c01000000000000000000000000000000000000000000000000000000000281526004018082815260200191505060206040518083038186803b1580156102a657600080fd5b505af41580156102ba573d6000803e3d6000fd5b505050506040513d60208110156102d057600080fd5b81019080805190602001909291905050509050919050565b600073__IntExtended___________________________633a9ebefd836040518263ffffffff167c01000000000000000000000000000000000000000000000000000000000281526004018082815260200191505060206040518083038186803b15801561035557600080fd5b505af4158015610369573d6000803e3d6000fd5b505050506040513d602081101561037f57600080fd5b81019080805190602001909291905050509050919050565b60008273__IntExtended___________________________637669a6409091846040518363ffffffff167c0100000000000000000000000000000000000000000000000000000000028152600401808381526020018281526020019250505060206040518083038186803b15801561040e57600080fd5b505af4158015610422573d6000803e3d6000fd5b505050506040513d602081101561043857600080fd5b81019080805190602001909291905050509050929150505600a165627a7a723058205bed531227ad6e27325d9aeac0e848b5120512a7c073fdfc5502f945212757dd0029",
  "source": "pragma solidity ^0.4.0;\n// this was used in https://remix.ethereum.org\nimport \"./IntExtended.sol\";\n\ncontract TestLibrary {\n    using IntExtended for uint;\n    \n    function testIncrement(uint _base) public pure returns (uint) {\n        return IntExtended.increment(_base);\n        //   return _base.increment(); // also works\n    }\n    \n    function testDecrement(uint _base) public pure returns (uint) {\n        return IntExtended.decrement(_base);\n        //        return _base.decrement(); // also works\n    }\n    \n    function testIncrementByValue(uint _base, uint _value) public pure returns (uint) {\n        return _base.incrementByValue(_value);\n    }\n    \n    function testDecrementByValue(uint _base, uint _value) public pure returns (uint) {\n        return _base.decrementByValue(_value);\n    }\n}",
  "sourcePath": "/home/reginaldanthony/accion/Accion/ContractsBySrini/Increment_Library/contracts/TestLibrary.sol",
  "compiler": {
    "name": "solc",
    "version": "0.4.24+commit.e67f0147.Emscripten.clang"
  },
  "schemaVersion": "2.0.1",
  "updatedAt": "2018-11-29T10:04:50.897Z"
}