{
  "contractName": "Game",
  "abi": [
    {
      "constant": true,
      "inputs": [],
      "name": "player2",
      "outputs": [
        {
          "name": "",
          "type": "address"
        }
      ],
      "payable": false,
      "stateMutability": "view",
      "type": "function"
    },
    {
      "constant": true,
      "inputs": [],
      "name": "player2Deposit",
      "outputs": [
        {
          "name": "",
          "type": "uint256"
        }
      ],
      "payable": false,
      "stateMutability": "view",
      "type": "function"
    },
    {
      "constant": true,
      "inputs": [],
      "name": "gains",
      "outputs": [
        {
          "name": "",
          "type": "uint256"
        }
      ],
      "payable": false,
      "stateMutability": "view",
      "type": "function"
    },
    {
      "constant": true,
      "inputs": [],
      "name": "player1Deposit",
      "outputs": [
        {
          "name": "",
          "type": "uint256"
        }
      ],
      "payable": false,
      "stateMutability": "view",
      "type": "function"
    },
    {
      "constant": true,
      "inputs": [],
      "name": "player2Played",
      "outputs": [
        {
          "name": "",
          "type": "bool"
        }
      ],
      "payable": false,
      "stateMutability": "view",
      "type": "function"
    },
    {
      "constant": true,
      "inputs": [],
      "name": "player1Played",
      "outputs": [
        {
          "name": "",
          "type": "bool"
        }
      ],
      "payable": false,
      "stateMutability": "view",
      "type": "function"
    },
    {
      "constant": true,
      "inputs": [],
      "name": "player1",
      "outputs": [
        {
          "name": "",
          "type": "address"
        }
      ],
      "payable": false,
      "stateMutability": "view",
      "type": "function"
    },
    {
      "constant": true,
      "inputs": [],
      "name": "winner",
      "outputs": [
        {
          "name": "",
          "type": "address"
        }
      ],
      "payable": false,
      "stateMutability": "view",
      "type": "function"
    },
    {
      "constant": true,
      "inputs": [],
      "name": "gameFinished",
      "outputs": [
        {
          "name": "",
          "type": "bool"
        }
      ],
      "payable": false,
      "stateMutability": "view",
      "type": "function"
    },
    {
      "inputs": [],
      "payable": false,
      "stateMutability": "nonpayable",
      "type": "constructor"
    },
    {
      "anonymous": false,
      "inputs": [
        {
          "indexed": false,
          "name": "player1",
          "type": "address"
        },
        {
          "indexed": false,
          "name": "player2",
          "type": "address"
        }
      ],
      "name": "StartEvent",
      "type": "event"
    },
    {
      "anonymous": false,
      "inputs": [
        {
          "indexed": false,
          "name": "player1Deposit",
          "type": "uint256"
        },
        {
          "indexed": false,
          "name": "player2Deposit",
          "type": "uint256"
        }
      ],
      "name": "EndRound",
      "type": "event"
    },
    {
      "anonymous": false,
      "inputs": [
        {
          "indexed": false,
          "name": "winner",
          "type": "address"
        },
        {
          "indexed": false,
          "name": "gains",
          "type": "uint256"
        }
      ],
      "name": "EndEvent",
      "type": "event"
    },
    {
      "constant": false,
      "inputs": [
        {
          "name": "_address",
          "type": "address"
        }
      ],
      "name": "registerAsAnOpponent",
      "outputs": [],
      "payable": false,
      "stateMutability": "nonpayable",
      "type": "function"
    },
    {
      "constant": false,
      "inputs": [],
      "name": "play",
      "outputs": [],
      "payable": true,
      "stateMutability": "payable",
      "type": "function"
    },
    {
      "constant": false,
      "inputs": [],
      "name": "endOfRound",
      "outputs": [],
      "payable": false,
      "stateMutability": "nonpayable",
      "type": "function"
    },
    {
      "constant": false,
      "inputs": [
        {
          "name": "_winner",
          "type": "address"
        }
      ],
      "name": "endOfGame",
      "outputs": [],
      "payable": false,
      "stateMutability": "nonpayable",
      "type": "function"
    },
    {
      "constant": false,
      "inputs": [],
      "name": "withdraw",
      "outputs": [],
      "payable": false,
      "stateMutability": "nonpayable",
      "type": "function"
    }
  ],
  "bytecode": "0x60806040526000600460006101000a81548160ff02191690831515021790555034801561002b57600080fd5b50336000806101000a81548173ffffffffffffffffffffffffffffffffffffffff021916908373ffffffffffffffffffffffffffffffffffffffff160217905550610a598061007b6000396000f3006080604052600436106100d0576000357c0100000000000000000000000000000000000000000000000000000000900463ffffffff16806339727208146100d55780633ccfd60b146101185780635851166c1461012f57806359a5f12d146101465780638bc9b67f1461019d57806393e84cd9146101e0578063a5b9d846146101ea578063ac653b2914610215578063c804eacc14610240578063c93f0c171461026b578063cfc9d1981461029a578063d30895e4146102c9578063dfbf53ae14610320578063f0f3249714610377575b600080fd5b3480156100e157600080fd5b50610116600480360381019080803573ffffffffffffffffffffffffffffffffffffffff1690602001909291905050506103a6565b005b34801561012457600080fd5b5061012d6104c4565b005b34801561013b57600080fd5b50610144610591565b005b34801561015257600080fd5b5061015b61060c565b604051808273ffffffffffffffffffffffffffffffffffffffff1673ffffffffffffffffffffffffffffffffffffffff16815260200191505060405180910390f35b3480156101a957600080fd5b506101de600480360381019080803573ffffffffffffffffffffffffffffffffffffffff169060200190929190505050610632565b005b6101e861072d565b005b3480156101f657600080fd5b506101ff610997565b6040518082815260200191505060405180910390f35b34801561022157600080fd5b5061022a61099d565b6040518082815260200191505060405180910390f35b34801561024c57600080fd5b506102556109a3565b6040518082815260200191505060405180910390f35b34801561027757600080fd5b506102806109a9565b604051808215151515815260200191505060405180910390f35b3480156102a657600080fd5b506102af6109bc565b604051808215151515815260200191505060405180910390f35b3480156102d557600080fd5b506102de6109cf565b604051808273ffffffffffffffffffffffffffffffffffffffff1673ffffffffffffffffffffffffffffffffffffffff16815260200191505060405180910390f35b34801561032c57600080fd5b506103356109f4565b604051808273ffffffffffffffffffffffffffffffffffffffff1673ffffffffffffffffffffffffffffffffffffffff16815260200191505060405180910390f35b34801561038357600080fd5b5061038c610a1a565b604051808215151515815260200191505060405180910390f35b80600160006101000a81548173ffffffffffffffffffffffffffffffffffffffff021916908373ffffffffffffffffffffffffffffffffffffffff1602179055507f05062ef1976b884d99d1aaee35648bc8f04a60daec7fbc8bae2d41ec866a1d4d6000809054906101000a900473ffffffffffffffffffffffffffffffffffffffff16600160009054906101000a900473ffffffffffffffffffffffffffffffffffffffff16604051808373ffffffffffffffffffffffffffffffffffffffff1673ffffffffffffffffffffffffffffffffffffffff1681526020018273ffffffffffffffffffffffffffffffffffffffff1673ffffffffffffffffffffffffffffffffffffffff1681526020019250505060405180910390a150565b6000600460009054906101000a900460ff16801561052f57503373ffffffffffffffffffffffffffffffffffffffff16600460019054906101000a900473ffffffffffffffffffffffffffffffffffffffff1673ffffffffffffffffffffffffffffffffffffffff16145b151561053a57600080fd5b600554905060006005819055503373ffffffffffffffffffffffffffffffffffffffff166108fc829081150290604051600060405180830381858888f1935050505015801561058d573d6000803e3d6000fd5b5050565b6000600160146101000a81548160ff0219169083151502179055506000600160156101000a81548160ff0219169083151502179055507f3de62ea950fc2ed1ed823bb23086296729e73cdd05823251b76e36665ff267b5600254600354604051808381526020018281526020019250505060405180910390a1565b600160009054906101000a900473ffffffffffffffffffffffffffffffffffffffff1681565b6001600460006101000a81548160ff02191690831515021790555080600460016101000a81548173ffffffffffffffffffffffffffffffffffffffff021916908373ffffffffffffffffffffffffffffffffffffffff160217905550600354600254016005819055507fdd4626d61eab5be61e1c2179da882655db2d85214feb67146baa1bb6c01c2d52600460019054906101000a900473ffffffffffffffffffffffffffffffffffffffff16600554604051808373ffffffffffffffffffffffffffffffffffffffff1673ffffffffffffffffffffffffffffffffffffffff1681526020018281526020019250505060405180910390a150565b600460009054906101000a900460ff161580156107ee57506000809054906101000a900473ffffffffffffffffffffffffffffffffffffffff1673ffffffffffffffffffffffffffffffffffffffff163373ffffffffffffffffffffffffffffffffffffffff1614806107ed5750600160009054906101000a900473ffffffffffffffffffffffffffffffffffffffff1673ffffffffffffffffffffffffffffffffffffffff163373ffffffffffffffffffffffffffffffffffffffff16145b5b15156107f657fe5b6000809054906101000a900473ffffffffffffffffffffffffffffffffffffffff1673ffffffffffffffffffffffffffffffffffffffff163373ffffffffffffffffffffffffffffffffffffffff1614156108975760001515600160149054906101000a900460ff16151514151561086d57600080fd5b60018060146101000a81548160ff02191690831515021790555034600254016002819055506108df565b60001515600160159054906101000a900460ff1615151415156108b957600080fd5b60018060156101000a81548160ff02191690831515021790555034600354016003819055505b600160149054906101000a900460ff1680156109075750600160159054906101000a900460ff165b156109955760026003540260025410151561094b576109466000809054906101000a900473ffffffffffffffffffffffffffffffffffffffff16610632565b610994565b600280540260035410151561098a57610985600160009054906101000a900473ffffffffffffffffffffffffffffffffffffffff16610632565b610993565b610992610591565b5b5b5b565b60035481565b60055481565b60025481565b600160159054906101000a900460ff1681565b600160149054906101000a900460ff1681565b6000809054906101000a900473ffffffffffffffffffffffffffffffffffffffff1681565b600460019054906101000a900473ffffffffffffffffffffffffffffffffffffffff1681565b600460009054906101000a900460ff16815600a165627a7a72305820dbe5f26d3a9d7175a831e61a9bcd10a45b3ab95dd2e0cc08e55bf737d7b171ee0029",
  "source": "pragma solidity ^0.4.4;\n\ncontract Game {\n    address public player1;\n    address public player2;\n\n    bool public player1Played;\n    bool public player2Played;\n\n    uint public player1Deposit;\n    uint public player2Deposit;\n\n    bool public gameFinished = false; \n    address public winner;\n    uint public gains;\n\n   event StartEvent(address player1, address player2);\n   event EndRound(uint player1Deposit, uint player2Deposit);\n   event EndEvent(address winner, uint gains);\n   \n   constructor() public {\n      player1 = msg.sender;\n   }\n   \n   function registerAsAnOpponent(address _address) public {\n        // require(player2 == address(0));\n        player2 = _address;\n        emit StartEvent(player1, player2);\n   }\n   \n\n  function play() public payable {\n    \tassert(!gameFinished && (msg.sender == player1 || msg.sender == player2));\n\n    \tif(msg.sender == player1) {\n    \t\trequire(player1Played == false);\n    \t\tplayer1Played = true;\n    \t\tplayer1Deposit = player1Deposit + msg.value;\n    \t} else { \n    \t\trequire(player2Played == false);\n    \t\tplayer2Played = true;\n    \t\tplayer2Deposit = player2Deposit + msg.value;\n    \t}\n    \tif(player1Played && player2Played) {\n    \t\tif(player1Deposit >= player2Deposit * 2) {\n    \t\t\tendOfGame(player1);\n    \t\t} else if (player2Deposit >= player1Deposit * 2) {\n    \t\t\tendOfGame(player2);\n    \t\t} else {\n                endOfRound();\n    \t\t}\n    \t}\n    }\n\n  function endOfRound() public {\n    \tplayer1Played = false;\n    \tplayer2Played = false;\n    \temit EndRound(player1Deposit, player2Deposit);\n  }\n\n  function endOfGame(address _winner) public {\n        gameFinished = true;\n        winner = _winner;\n        gains = player1Deposit + player2Deposit;\n        emit EndEvent(winner, gains);\n  }\n\n  function withdraw() public {\n        require(gameFinished && winner == msg.sender);\n\n        uint amount = gains;\n\n        gains = 0;\n        msg.sender.transfer(amount);\n    }\n\n}",
  "sourcePath": "/home/reginaldanthony/accion/Accion/ContractsBySrini/playFunGame/contracts/playFunGame.sol",
  "compiler": {
    "name": "solc",
    "version": "0.4.24+commit.e67f0147.Emscripten.clang"
  },
  "schemaVersion": "2.0.1",
  "updatedAt": "2018-11-26T11:04:00.534Z"
}