{
  "contractName": "Game",
  "abi": [
    {
      "constant": true,
      "inputs": [],
      "name": "player2",
      "outputs": [
        {
          "name": "",
          "type": "address"
        }
      ],
      "payable": false,
      "stateMutability": "view",
      "type": "function"
    },
    {
      "constant": true,
      "inputs": [],
      "name": "player2Deposit",
      "outputs": [
        {
          "name": "",
          "type": "uint256"
        }
      ],
      "payable": false,
      "stateMutability": "view",
      "type": "function"
    },
    {
      "constant": true,
      "inputs": [],
      "name": "player1Deposit",
      "outputs": [
        {
          "name": "",
          "type": "uint256"
        }
      ],
      "payable": false,
      "stateMutability": "view",
      "type": "function"
    },
    {
      "constant": true,
      "inputs": [],
      "name": "player2Played",
      "outputs": [
        {
          "name": "",
          "type": "bool"
        }
      ],
      "payable": false,
      "stateMutability": "view",
      "type": "function"
    },
    {
      "constant": true,
      "inputs": [],
      "name": "player1Played",
      "outputs": [
        {
          "name": "",
          "type": "bool"
        }
      ],
      "payable": false,
      "stateMutability": "view",
      "type": "function"
    },
    {
      "constant": true,
      "inputs": [],
      "name": "player1",
      "outputs": [
        {
          "name": "",
          "type": "address"
        }
      ],
      "payable": false,
      "stateMutability": "view",
      "type": "function"
    },
    {
      "constant": true,
      "inputs": [],
      "name": "winner",
      "outputs": [
        {
          "name": "",
          "type": "address"
        }
      ],
      "payable": false,
      "stateMutability": "view",
      "type": "function"
    },
    {
      "constant": true,
      "inputs": [],
      "name": "gameFinished",
      "outputs": [
        {
          "name": "",
          "type": "bool"
        }
      ],
      "payable": false,
      "stateMutability": "view",
      "type": "function"
    },
    {
      "inputs": [],
      "payable": false,
      "stateMutability": "nonpayable",
      "type": "constructor"
    },
    {
      "anonymous": false,
      "inputs": [
        {
          "indexed": false,
          "name": "player1",
          "type": "address"
        },
        {
          "indexed": false,
          "name": "player2",
          "type": "address"
        }
      ],
      "name": "StartEvent",
      "type": "event"
    },
    {
      "anonymous": false,
      "inputs": [
        {
          "indexed": false,
          "name": "player1Deposit",
          "type": "uint256"
        },
        {
          "indexed": false,
          "name": "player2Deposit",
          "type": "uint256"
        }
      ],
      "name": "EndRound",
      "type": "event"
    },
    {
      "anonymous": false,
      "inputs": [
        {
          "indexed": false,
          "name": "winner",
          "type": "address"
        },
        {
          "indexed": false,
          "name": "gains",
          "type": "uint256"
        }
      ],
      "name": "EndEvent",
      "type": "event"
    },
    {
      "constant": false,
      "inputs": [
        {
          "name": "_address",
          "type": "address"
        }
      ],
      "name": "registerAsAnOpponent",
      "outputs": [],
      "payable": false,
      "stateMutability": "nonpayable",
      "type": "function"
    },
    {
      "constant": false,
      "inputs": [],
      "name": "play",
      "outputs": [],
      "payable": true,
      "stateMutability": "payable",
      "type": "function"
    },
    {
      "constant": false,
      "inputs": [],
      "name": "withdraw",
      "outputs": [],
      "payable": false,
      "stateMutability": "nonpayable",
      "type": "function"
    }
  ],
  "bytecode": "0x608060405234801561001057600080fd5b50336000806101000a81548173ffffffffffffffffffffffffffffffffffffffff021916908373ffffffffffffffffffffffffffffffffffffffff1602179055506109b0806100606000396000f3006080604052600436106100af576000357c0100000000000000000000000000000000000000000000000000000000900463ffffffff16806339727208146100b45780633ccfd60b146100f757806359a5f12d1461010e57806393e84cd914610165578063a5b9d8461461016f578063c804eacc1461019a578063c93f0c17146101c5578063cfc9d198146101f4578063d30895e414610223578063dfbf53ae1461027a578063f0f32497146102d1575b600080fd5b3480156100c057600080fd5b506100f5600480360381019080803573ffffffffffffffffffffffffffffffffffffffff169060200190929190505050610300565b005b34801561010357600080fd5b5061010c61041e565b005b34801561011a57600080fd5b506101236104eb565b604051808273ffffffffffffffffffffffffffffffffffffffff1673ffffffffffffffffffffffffffffffffffffffff16815260200191505060405180910390f35b61016d610511565b005b34801561017b57600080fd5b5061018461077e565b6040518082815260200191505060405180910390f35b3480156101a657600080fd5b506101af610784565b6040518082815260200191505060405180910390f35b3480156101d157600080fd5b506101da61078a565b604051808215151515815260200191505060405180910390f35b34801561020057600080fd5b5061020961079d565b604051808215151515815260200191505060405180910390f35b34801561022f57600080fd5b506102386107b0565b604051808273ffffffffffffffffffffffffffffffffffffffff1673ffffffffffffffffffffffffffffffffffffffff16815260200191505060405180910390f35b34801561028657600080fd5b5061028f6107d5565b604051808273ffffffffffffffffffffffffffffffffffffffff1673ffffffffffffffffffffffffffffffffffffffff16815260200191505060405180910390f35b3480156102dd57600080fd5b506102e66107fb565b604051808215151515815260200191505060405180910390f35b80600160006101000a81548173ffffffffffffffffffffffffffffffffffffffff021916908373ffffffffffffffffffffffffffffffffffffffff1602179055507f05062ef1976b884d99d1aaee35648bc8f04a60daec7fbc8bae2d41ec866a1d4d6000809054906101000a900473ffffffffffffffffffffffffffffffffffffffff16600160009054906101000a900473ffffffffffffffffffffffffffffffffffffffff16604051808373ffffffffffffffffffffffffffffffffffffffff1673ffffffffffffffffffffffffffffffffffffffff1681526020018273ffffffffffffffffffffffffffffffffffffffff1673ffffffffffffffffffffffffffffffffffffffff1681526020019250505060405180910390a150565b6000600460009054906101000a900460ff16801561048957503373ffffffffffffffffffffffffffffffffffffffff16600460019054906101000a900473ffffffffffffffffffffffffffffffffffffffff1673ffffffffffffffffffffffffffffffffffffffff16145b151561049457600080fd5b600554905060006005819055503373ffffffffffffffffffffffffffffffffffffffff166108fc829081150290604051600060405180830381858888f193505050501580156104e7573d6000803e3d6000fd5b5050565b600160009054906101000a900473ffffffffffffffffffffffffffffffffffffffff1681565b600460009054906101000a900460ff161580156105d257506000809054906101000a900473ffffffffffffffffffffffffffffffffffffffff1673ffffffffffffffffffffffffffffffffffffffff163373ffffffffffffffffffffffffffffffffffffffff1614806105d15750600160009054906101000a900473ffffffffffffffffffffffffffffffffffffffff1673ffffffffffffffffffffffffffffffffffffffff163373ffffffffffffffffffffffffffffffffffffffff16145b5b15156105dd57600080fd5b6000809054906101000a900473ffffffffffffffffffffffffffffffffffffffff1673ffffffffffffffffffffffffffffffffffffffff163373ffffffffffffffffffffffffffffffffffffffff16141561067e5760001515600160149054906101000a900460ff16151514151561065457600080fd5b60018060146101000a81548160ff02191690831515021790555034600254016002819055506106c6565b60001515600160159054906101000a900460ff1615151415156106a057600080fd5b60018060156101000a81548160ff02191690831515021790555034600354016003819055505b600160149054906101000a900460ff1680156106ee5750600160159054906101000a900460ff165b1561077c576002600354026002541015156107325761072d6000809054906101000a900473ffffffffffffffffffffffffffffffffffffffff1661080e565b61077b565b60028054026003541015156107715761076c600160009054906101000a900473ffffffffffffffffffffffffffffffffffffffff1661080e565b61077a565b610779610909565b5b5b5b565b60035481565b60025481565b600160159054906101000a900460ff1681565b600160149054906101000a900460ff1681565b6000809054906101000a900473ffffffffffffffffffffffffffffffffffffffff1681565b600460019054906101000a900473ffffffffffffffffffffffffffffffffffffffff1681565b600460009054906101000a900460ff1681565b6001600460006101000a81548160ff02191690831515021790555080600460016101000a81548173ffffffffffffffffffffffffffffffffffffffff021916908373ffffffffffffffffffffffffffffffffffffffff160217905550600354600254016005819055507fdd4626d61eab5be61e1c2179da882655db2d85214feb67146baa1bb6c01c2d52600460019054906101000a900473ffffffffffffffffffffffffffffffffffffffff16600554604051808373ffffffffffffffffffffffffffffffffffffffff1673ffffffffffffffffffffffffffffffffffffffff1681526020018281526020019250505060405180910390a150565b6000600160146101000a81548160ff0219169083151502179055506000600160156101000a81548160ff0219169083151502179055507f3de62ea950fc2ed1ed823bb23086296729e73cdd05823251b76e36665ff267b5600254600354604051808381526020018281526020019250505060405180910390a15600a165627a7a723058205ccb54119a0ae983d977a561c862ff330cd326378a14488189d7d13abbc581d60029",
  "source": "pragma solidity ^0.4.4;\n\ncontract Game {\n    address public player1;\n    address public player2;\n\n    bool public player1Played;\n    bool public player2Played;\n\n    uint public player1Deposit;\n    uint public player2Deposit;\n\n    bool public gameFinished; \n    address public winner;\n    uint gains;\n\n   event StartEvent(address player1, address player2);\n   event EndRound(uint player1Deposit, uint player2Deposit);\n   event EndEvent(address winner, uint gains);\n   \n   constructor() public {\n      player1 = msg.sender;\n   }\n   \n   function registerAsAnOpponent(address _address) public {\n        // require(player2 == address(0));\n        player2 = _address;\n        emit StartEvent(player1, player2);\n   }\n   \n\n  function play() public payable {\n    \trequire(!gameFinished && (msg.sender == player1 || msg.sender == player2));\n\n    \tif(msg.sender == player1) {\n    \t\trequire(player1Played == false);\n    \t\tplayer1Played = true;\n    \t\tplayer1Deposit = player1Deposit + msg.value;\n    \t} else { \n    \t\trequire(player2Played == false);\n    \t\tplayer2Played = true;\n    \t\tplayer2Deposit = player2Deposit + msg.value;\n    \t}\n    \tif(player1Played && player2Played) {\n    \t\tif(player1Deposit >= player2Deposit * 2) {\n    \t\t\tendOfGame(player1);\n    \t\t} else if (player2Deposit >= player1Deposit * 2) {\n    \t\t\tendOfGame(player2);\n    \t\t} else {\n                endOfRound();\n    \t\t}\n    \t}\n    }\n\n  function endOfRound() internal {\n    \tplayer1Played = false;\n    \tplayer2Played = false;\n    \temit EndRound(player1Deposit, player2Deposit);\n  }\n\n  function endOfGame(address _winner) internal {\n        gameFinished = true;\n        winner = _winner;\n        gains = player1Deposit + player2Deposit;\n        emit EndEvent(winner, gains);\n  }\n\n  function withdraw() public {\n        require(gameFinished && winner == msg.sender);\n\n        uint amount = gains;\n\n        gains = 0;\n        msg.sender.transfer(amount);\n    }\n\n}",
  "sourcePath": "/home/reginaldanthony/accion/Accion/ContractsBySrini/playFunGame/contracts/playFunGame.sol",
  "compiler": {
    "name": "solc",
    "version": "0.4.24+commit.e67f0147.Emscripten.clang"
  },
  "schemaVersion": "2.0.1",
  "updatedAt": "2018-11-26T06:54:00.173Z"
}