{
  "contractName": "ComplexConfig",
  "abi": [
    {
      "constant": true,
      "inputs": [
        {
          "name": "a",
          "type": "string"
        },
        {
          "name": "b",
          "type": "string"
        }
      ],
      "name": "stringCompare",
      "outputs": [
        {
          "name": "",
          "type": "bool"
        }
      ],
      "payable": false,
      "stateMutability": "pure",
      "type": "function"
    },
    {
      "constant": true,
      "inputs": [],
      "name": "getIT",
      "outputs": [
        {
          "name": "",
          "type": "address"
        }
      ],
      "payable": false,
      "stateMutability": "view",
      "type": "function"
    },
    {
      "constant": false,
      "inputs": [
        {
          "name": "_name",
          "type": "string"
        },
        {
          "name": "_balance",
          "type": "string"
        },
        {
          "name": "_limit",
          "type": "string"
        }
      ],
      "name": "registerAccountDetails",
      "outputs": [],
      "payable": false,
      "stateMutability": "nonpayable",
      "type": "function"
    },
    {
      "constant": true,
      "inputs": [],
      "name": "getAccountDetails",
      "outputs": [
        {
          "name": "",
          "type": "string"
        },
        {
          "name": "",
          "type": "string"
        },
        {
          "name": "",
          "type": "string"
        },
        {
          "name": "",
          "type": "address"
        }
      ],
      "payable": false,
      "stateMutability": "view",
      "type": "function"
    }
  ],
  "bytecode": "0x608060405234801561001057600080fd5b50610a64806100206000396000f300608060405260043610610062576000357c0100000000000000000000000000000000000000000000000000000000900463ffffffff168063033708b51461006757806312b884f5146100be57806360353db9146101b3578063c39869c11461027a575b600080fd5b34801561007357600080fd5b5061007c610415565b604051808273ffffffffffffffffffffffffffffffffffffffff1673ffffffffffffffffffffffffffffffffffffffff16815260200191505060405180910390f35b3480156100ca57600080fd5b506101b1600480360381019080803590602001908201803590602001908080601f0160208091040260200160405190810160405280939291908181526020018383808284378201915050505050509192919290803590602001908201803590602001908080601f0160208091040260200160405190810160405280939291908181526020018383808284378201915050505050509192919290803590602001908201803590602001908080601f016020809104026020016040519081016040528093929190818152602001838380828437820191505050505050919291929050505061041d565b005b3480156101bf57600080fd5b50610260600480360381019080803590602001908201803590602001908080601f0160208091040260200160405190810160405280939291908181526020018383808284378201915050505050509192919290803590602001908201803590602001908080601f01602080910402602001604051908101604052809392919081815260200183838082843782019150505050505091929192905050506105a8565b604051808215151515815260200191505060405180910390f35b34801561028657600080fd5b5061028f610681565b604051808060200180602001806020018573ffffffffffffffffffffffffffffffffffffffff1673ffffffffffffffffffffffffffffffffffffffff168152602001848103845288818151815260200191508051906020019080838360005b838110156103095780820151818401526020810190506102ee565b50505050905090810190601f1680156103365780820380516001836020036101000a031916815260200191505b50848103835287818151815260200191508051906020019080838360005b8381101561036f578082015181840152602081019050610354565b50505050905090810190601f16801561039c5780820380516001836020036101000a031916815260200191505b50848103825286818151815260200191508051906020019080838360005b838110156103d55780820151818401526020810190506103ba565b50505050905090810190601f1680156104025780820380516001836020036101000a031916815260200191505b5097505050505050505060405180910390f35b600033905090565b82600460003373ffffffffffffffffffffffffffffffffffffffff1673ffffffffffffffffffffffffffffffffffffffff1681526020019081526020016000206000019080519060200190610473929190610993565b5081600460003373ffffffffffffffffffffffffffffffffffffffff1673ffffffffffffffffffffffffffffffffffffffff16815260200190815260200160002060010190805190602001906104ca929190610993565b5080600460003373ffffffffffffffffffffffffffffffffffffffff1673ffffffffffffffffffffffffffffffffffffffff1681526020019081526020016000206002019080519060200190610521929190610993565b5033600460003373ffffffffffffffffffffffffffffffffffffffff1673ffffffffffffffffffffffffffffffffffffffff16815260200190815260200160002060030160006101000a81548173ffffffffffffffffffffffffffffffffffffffff021916908373ffffffffffffffffffffffffffffffffffffffff160217905550505050565b6000816040518082805190602001908083835b6020831015156105e057805182526020820191506020810190506020830392506105bb565b6001836020036101000a038019825116818451168082178552505050505050905001915050604051809103902060001916836040518082805190602001908083835b6020831015156106475780518252602082019150602081019050602083039250610622565b6001836020036101000a03801982511681845116808217855250505050505090500191505060405180910390206000191614905092915050565b60608060606000600460003373ffffffffffffffffffffffffffffffffffffffff1673ffffffffffffffffffffffffffffffffffffffff168152602001908152602001600020600001600460003373ffffffffffffffffffffffffffffffffffffffff1673ffffffffffffffffffffffffffffffffffffffff168152602001908152602001600020600101600460003373ffffffffffffffffffffffffffffffffffffffff1673ffffffffffffffffffffffffffffffffffffffff168152602001908152602001600020600201600460003373ffffffffffffffffffffffffffffffffffffffff1673ffffffffffffffffffffffffffffffffffffffff16815260200190815260200160002060030160009054906101000a900473ffffffffffffffffffffffffffffffffffffffff16838054600181600116156101000203166002900480601f0160208091040260200160405190810160405280929190818152602001828054600181600116156101000203166002900480156108465780601f1061081b57610100808354040283529160200191610846565b820191906000526020600020905b81548152906001019060200180831161082957829003601f168201915b50505050509350828054600181600116156101000203166002900480601f0160208091040260200160405190810160405280929190818152602001828054600181600116156101000203166002900480156108e25780601f106108b7576101008083540402835291602001916108e2565b820191906000526020600020905b8154815290600101906020018083116108c557829003601f168201915b50505050509250818054600181600116156101000203166002900480601f01602080910402602001604051908101604052809291908181526020018280546001816001161561010002031660029004801561097e5780601f106109535761010080835404028352916020019161097e565b820191906000526020600020905b81548152906001019060200180831161096157829003601f168201915b50505050509150935093509350935090919293565b828054600181600116156101000203166002900490600052602060002090601f016020900481019282601f106109d457805160ff1916838001178555610a02565b82800160010185558215610a02579182015b82811115610a015782518255916020019190600101906109e6565b5b509050610a0f9190610a13565b5090565b610a3591905b80821115610a31576000816000905550600101610a19565b5090565b905600a165627a7a7230582027a14401f1e8cba0c0c126d484701cd49ea619502fada17b41a9429a812bb3520029",
  "source": "pragma solidity ^0.4.23;\n    \ncontract ComplexConfig {\n   \n   struct Account {\n        string name;\n        string balance;\n        string dailyLimit;\n        address public_address;\n    }\n    \n    // uint private httpPort = 80;\n    // string private dbname;\n    // string private dbString = \"database\";\n    \n    Account private myAccount;\n    mapping(address => Account) accountDetails; //address to person \n\n    function stringCompare(string a, string b) public pure returns (bool){\n       return keccak256(a) == keccak256(b);\n   }\n\n     function getIT() public view returns (address) {\n        return msg.sender;\n    }\n   \n    // function setValue(string _value, string _name) public{\n    //   if (stringCompare(_name,dbString))\n    //       dbname = _value;\n    // }\n   \n//   function getValue(string  _name) public view returns (string) {\n//       if (stringCompare(_name,dbString))\n//           return dbname;\n//     }\n    \n    // function getPort() public view returns (uint) {\n    //     return httpPort;\n    // }\n    \n    // function setAccount(string _name,uint _balance, uint _limit) public{\n    //     myAccount.name = _name;\n    //     myAccount.balance = _balance;\n    //     myAccount.dailyLimit = _limit;\n    // }\n    \n    // function getAccount() view public returns(string,uint,uint) {\n    //     return(myAccount.name,myAccount.balance,myAccount.dailyLimit);\n    // }\n    \n    function registerAccountDetails(string _name,string _balance,string _limit) public{\n            accountDetails[msg.sender].name = _name;\n            accountDetails[msg.sender].balance = _balance;\n            accountDetails[msg.sender].dailyLimit = _limit;\n            accountDetails[msg.sender].public_address = msg.sender;\n    }\n    \n    function getAccountDetails() public view returns(string,string,string,address){\n        \n        return(accountDetails[msg.sender].name,accountDetails[msg.sender].balance,accountDetails[msg.sender].dailyLimit,accountDetails[msg.sender].public_address);\n    }\n}",
  "sourcePath": "/home/reginaldanthony/accion/Accion/Dump/Angular_Smartcontracts/Registration/contracts/ComplexConfig.sol",
  "compiler": {
    "name": "solc",
    "version": "0.4.24+commit.e67f0147.Emscripten.clang"
  },
  "schemaVersion": "2.0.1",
  "updatedAt": "2018-12-19T07:58:42.058Z"
}