{
  "contractName": "Payment",
  "abi": [
    {
      "inputs": [],
      "payable": false,
      "stateMutability": "nonpayable",
      "type": "constructor"
    },
    {
      "anonymous": false,
      "inputs": [
        {
          "indexed": false,
          "name": "_transferTo",
          "type": "address"
        },
        {
          "indexed": false,
          "name": "_transferFrom",
          "type": "address"
        },
        {
          "indexed": false,
          "name": "amount",
          "type": "uint256"
        }
      ],
      "name": "TransferFundEvent",
      "type": "event"
    },
    {
      "constant": false,
      "inputs": [
        {
          "name": "_transferTo",
          "type": "address"
        }
      ],
      "name": "transferFund",
      "outputs": [
        {
          "name": "",
          "type": "bool"
        }
      ],
      "payable": true,
      "stateMutability": "payable",
      "type": "function"
    },
    {
      "constant": false,
      "inputs": [],
      "name": "getBalanceOfCurrentAccount",
      "outputs": [
        {
          "name": "",
          "type": "uint256"
        }
      ],
      "payable": true,
      "stateMutability": "payable",
      "type": "function"
    }
  ],
  "bytecode": "0x608060405234801561001057600080fd5b50336000806101000a81548173ffffffffffffffffffffffffffffffffffffffff021916908373ffffffffffffffffffffffffffffffffffffffff1602179055506102c0806100606000396000f30060806040526004361061004c576000357c0100000000000000000000000000000000000000000000000000000000900463ffffffff168063cd4558fd14610051578063eba1877b1461009f575b600080fd5b610085600480360381019080803573ffffffffffffffffffffffffffffffffffffffff1690602001909291905050506100bd565b604051808215151515815260200191505060405180910390f35b6100a7610254565b6040518082815260200191505060405180910390f35b600081600160006101000a81548173ffffffffffffffffffffffffffffffffffffffff021916908373ffffffffffffffffffffffffffffffffffffffff160217905550600160009054906101000a900473ffffffffffffffffffffffffffffffffffffffff1673ffffffffffffffffffffffffffffffffffffffff166108fc349081150290604051600060405180830381858888f19350505050158015610168573d6000803e3d6000fd5b507f4f1af0d23d91de7387b16cedd7f1df53d2cb9709970e128ac2b96e05f441e7b6600160009054906101000a900473ffffffffffffffffffffffffffffffffffffffff166000809054906101000a900473ffffffffffffffffffffffffffffffffffffffff1634604051808473ffffffffffffffffffffffffffffffffffffffff1673ffffffffffffffffffffffffffffffffffffffff1681526020018373ffffffffffffffffffffffffffffffffffffffff1673ffffffffffffffffffffffffffffffffffffffff168152602001828152602001935050505060405180910390a160019050919050565b60008060009054906101000a900473ffffffffffffffffffffffffffffffffffffffff1673ffffffffffffffffffffffffffffffffffffffff16319050905600a165627a7a7230582096a0a6d024a0f8333cf1c5e6324b1bbf11d7b4dd5bb3af9f34bec8731c79a0750029",
  "source": "pragma solidity ^0.4.17;\n\ncontract Payment {\n  address transferFrom;\n  address transferTo;\n  uint paymentAmount;\n \n  constructor() public {\n    transferFrom = msg.sender;\n  }\n \n  event TransferFundEvent(address _transferTo, address _transferFrom, uint amount);\n \n  function transferFund(address _transferTo) public payable returns (bool){\n      transferTo = _transferTo;\n      transferTo.transfer(msg.value);\n  \n      emit TransferFundEvent(transferTo, transferFrom, msg.value);\n \n      return true;\n  }\n \n  function getBalanceOfCurrentAccount() public payable returns (uint) {\n    return transferFrom.balance;\n  }\n \n}",
  "sourcePath": "/home/reginaldanthony/Desktop/pay/contracts/Payment.sol",
  "compiler": {
    "name": "solc",
    "version": "0.4.24+commit.e67f0147.Emscripten.clang"
  },
  "schemaVersion": "2.0.1",
  "updatedAt": "2018-12-07T13:07:25.055Z"
}