{
  "contractName": "Calculator",
  "abi": [
    {
      "inputs": [],
      "payable": false,
      "stateMutability": "nonpayable",
      "type": "constructor"
    },
    {
      "constant": true,
      "inputs": [],
      "name": "getResult",
      "outputs": [
        {
          "name": "",
          "type": "uint256"
        }
      ],
      "payable": false,
      "stateMutability": "view",
      "type": "function"
    },
    {
      "constant": true,
      "inputs": [
        {
          "name": "num1",
          "type": "uint256"
        },
        {
          "name": "num2",
          "type": "uint256"
        }
      ],
      "name": "addition",
      "outputs": [
        {
          "name": "",
          "type": "uint256"
        }
      ],
      "payable": false,
      "stateMutability": "pure",
      "type": "function"
    },
    {
      "constant": true,
      "inputs": [
        {
          "name": "num1",
          "type": "uint256"
        },
        {
          "name": "num2",
          "type": "uint256"
        }
      ],
      "name": "sub",
      "outputs": [
        {
          "name": "",
          "type": "uint256"
        }
      ],
      "payable": false,
      "stateMutability": "pure",
      "type": "function"
    },
    {
      "constant": true,
      "inputs": [
        {
          "name": "num1",
          "type": "uint256"
        },
        {
          "name": "num2",
          "type": "uint256"
        }
      ],
      "name": "mult",
      "outputs": [
        {
          "name": "",
          "type": "uint256"
        }
      ],
      "payable": false,
      "stateMutability": "pure",
      "type": "function"
    },
    {
      "constant": true,
      "inputs": [
        {
          "name": "num1",
          "type": "uint256"
        },
        {
          "name": "num2",
          "type": "uint256"
        }
      ],
      "name": "div",
      "outputs": [
        {
          "name": "",
          "type": "uint256"
        }
      ],
      "payable": false,
      "stateMutability": "pure",
      "type": "function"
    }
  ],
  "bytecode": "0x60806040526000805534801561001457600080fd5b5061023b806100246000396000f30060806040526004361061006d576000357c0100000000000000000000000000000000000000000000000000000000900463ffffffff16806354f363a3146100725780639aa727f6146100bd578063a391c15b14610108578063b67d77c514610153578063de2927891461019e575b600080fd5b34801561007e57600080fd5b506100a760048036038101908080359060200190929190803590602001909291905050506101c9565b6040518082815260200191505060405180910390f35b3480156100c957600080fd5b506100f260048036038101908080359060200190929190803590602001909291905050506101d6565b6040518082815260200191505060405180910390f35b34801561011457600080fd5b5061013d60048036038101908080359060200190929190803590602001909291905050506101e3565b6040518082815260200191505060405180910390f35b34801561015f57600080fd5b5061018860048036038101908080359060200190929190803590602001909291905050506101f9565b6040518082815260200191505060405180910390f35b3480156101aa57600080fd5b506101b3610206565b6040518082815260200191505060405180910390f35b6000818301905092915050565b6000818302905092915050565b600081838115156101f057fe5b04905092915050565b6000818303905092915050565b600080549050905600a165627a7a72305820665313726d6367ea7cd187a2280af7e13ba6e1e7cf682b259a65f6b7278f58c90029",
  "source": "pragma solidity 0.4.24;\n\ncontract Calculator{\n\n    uint result=0;\n\n    constructor() public\n    {\n\n    }\n\n    function getResult() public view returns (uint)\n    {\n        return result;\n    }\n\n    function addition(uint num1, uint num2) public pure returns (uint)\n    {\n        return (num1+num2);\n\n    }\n\n    function sub(uint num1, uint num2) public pure returns (uint)\n    {\n        return (num1 - num2);\n    }\n\n    function mult(uint num1, uint num2) public pure returns (uint)\n    {\n        return (num1 * num2);\n    }\n\n    function div(uint num1, uint num2) public pure returns (uint)\n    {\n        return (num1 / num2);\n    }\n\n    }",
  "sourcePath": "/home/reginaldanthony/accion/Accion/Dump/Angular_Smartcontracts/calculator/calculator/contracts/Calculator.sol",
  "compiler": {
    "name": "solc",
    "version": "0.4.24+commit.e67f0147.Emscripten.clang"
  },
  "schemaVersion": "2.0.1",
  "updatedAt": "2018-12-18T11:05:56.987Z"
}